{
  "contractName": "MokaToken",
  "abi": [
    {
      "constant": true,
      "inputs": [],
      "name": "totalSupply",
      "outputs": [
        {
          "name": "",
          "type": "uint256"
        }
      ],
      "payable": false,
      "stateMutability": "view",
      "type": "function",
      "signature": "0x18160ddd"
    },
    {
      "inputs": [],
      "payable": false,
      "stateMutability": "nonpayable",
      "type": "constructor",
      "signature": "constructor"
    }
  ],
  "bytecode": "0x608060405234801561001057600080fd5b50620f4240600081905550609e806100296000396000f3fe608060405260043610603f576000357c0100000000000000000000000000000000000000000000000000000000900463ffffffff16806318160ddd146044575b600080fd5b348015604f57600080fd5b506056606c565b6040518082815260200191505060405180910390f35b6000548156fea165627a7a72305820ecf3a5baecfaf0c6c1ac226e723de7d32ec0a87348c71f31ad35f9ae1d75e3f60029",
  "source": "pragma solidity ^0.5.0; //Solidity Version\r\n\r\ncontract MokaToken{\r\n  //constructor\r\n  //set total number of tokens\r\n  //read total number of tokens\r\n\r\n  uint256 public totalSupply;       //This is a state variable.Accessible in the entire contract.\r\n\r\n  constructor() public{      //using constructor\r\n    totalSupply = 1000000;          // Total value set to 1000000 on init. This is ERC 20 standard.\r\n  }\r\n}\r\n",
  "sourcePath": "C:/Users/Rushikesh/Desktop/mokacoin/contracts/MokaToken.sol",
  "compiler": {
    "name": "solc",
    "version": "0.5.0+commit.1d4f565a.Emscripten.clang"
  },
  "schemaVersion": "3.0.1",
  "updatedAt": "2020-04-21T18:00:51.658Z",
  "devdoc": {
    "methods": {}
  },
  "userdoc": {
    "methods": {}
  }
}